:100000000C94A7010C9400000C9400000C940000C8
:100010000C9400000C9400000C9400000C94000060
:100020000C9400000C9400000C9400000C94000050
:100030000C9400000C9400000C9400000C94000040
:100040000C9400000C9400000C94B6050C94000075
:100050000C9400000C9400000C9400000C94000020
:100060000C9400000C9400000C9400000C94000010
:100070000C9400000C9400000C9400000C94000000
:100080000C9400000C9400000C940000F07E0E0014
:1000900010CD0E0010CD0E0028401000284010009A
:1000A00050DA110050DA110020D6130020D61300C8
:1000B000880C1600880C1600588518005885180002
:1000C00050211B0050211B00F0A11D00F0A11D00BC
:1000D000388420003884200070CE2000000000000A
:1000E000000000000000C0000A2E2E2E2E2E2E2E04
:1000F0002E2E2E2E2E2E2E2E0A000A2E2E2E2E2E96
:100100002ED7D4BCEC2E2E2E2E2E0A0031332F31BA
:100110003856B5E7D1B92025660A00414743B5E70F
:10012000D1B92025660A00414743B5F7C0EDB5E7D0
:10013000D1B92025660A00312E3856B5E7D1B9204D
:1001400025660A00332E3356B5E7D1B92025660A55
:1001500000414435B5E7D1B92025660A004144364F
:10016000B5E7D1B92025660A00414437B5E7D1B9D2
:100170002025660A002E2E2E2E2E2E2E2E444F4E79
:10018000452E2E2E2E2E2E2E2E2E2E2E0A0025758C
:100190002025752025752025750A00536574205487
:1001A000756E657220566F6C7461676520313856C4
:1001B0002121210A000A2E2E2E2E2E2E414443CD1F
:1001C000A8B5C0B2E2C1BF2E2E2E2E2E0A00536556
:1001D000742054756E657220566F6C74616765206B
:1001E0003133562121210A00456E746572207265F3
:1001F00067697374657220616464723A005265675E
:10020000697374657220307825782076616C756525
:1002100020697320307825780A00456E7465722055
:100220007265676973746572206164647220262048
:10023000627974653A005772697465202578207474
:100240006F2052656720307825782C616E642076A7
:10025000616C756520697320307825780A005475C3
:100260006E65724672657120746F206265207365D9
:100270007420256C642E0A00496E69742054756ED2
:1002800065722121210A0054756E6572467265718E
:1002900020256C642E0A0054756E65724672657175
:1002A00075656E63792043616C63756C617465205C
:1002B00026207365742053756363657373210A0088
:1002C00054756E65724672657175656E637920430B
:1002D000616C63756C6174652026207365742046BB
:1002E00061696C6564210A0073796D626F6C202509
:1002F000662C2030782578203078257820307825B5
:10030000780A0053657453796D626F6C526174653D
:1003100020446F6E650A006C6F636B65640A006E43
:100320006F74206C6F636B65640A00706C6C206E78
:100330006F206C6F636B65643A307825780A00250E
:10034000752025752025752025640A000000F89485
:10035000EE27ECBBF1E0F5BFE5BFE0936C00EBBF2F
:10036000F8E1F1BDE1BD8DE0A2E0BB27ED938A95F8
:10037000E9F780E090E1A0E0B1E0ED930197E9F7C3
:10038000ECE4F3E085919591009761F0A591B5912A
:1003900005901590BF01F00105900D920197E1F7CE
:1003A000FB01F0CFEFEFEDBFE0E1EEBFC0E0D5E045
:1003B0000C94D203E0E0EBBBEABBE1E0E8BBE7E38F
:1003C000E7BBE0E0E5BBECE6E4BBE0E1E2BBEBEF82
:1003D000E1BBE0E0E3B9EEE0E2B9E0E0E093620027
:1003E000E0936100E0936500E8E1E0936400E0E001
:1003F000E0BFE7E0E3BFE2E8E2BFE0E0E1BFEFBD7E
:10040000EEBDEDBDECBDE7BDE6BDEBBDEABDE9BDB2
:10041000E8BDE0937900E0937800E5BDE4BDE3BD7D
:10042000E0938B00E0938A00E0938900E0938800DA
:10043000E0938100E0938000E0938700E0938600E2
:10044000E0938500E0938400E0938300E0938200D2
:10045000E0936A00EABFE9BFE7BFE0937D00EBB934
:10046000E8E1EAB9E6E0E0939500E0E0E09390008F
:10047000E1E1E9B9E0E0E0939B00E8E1E0939A0074
:10048000E6E0E0939D00E0E0E0939800E7E6E0938B
:100490009900E0E8E8B9E0E0E0BDE7B9E7E8E6B9EF
:1004A000E8EEF3E0FA93EA930E94A50D959AE8EE40
:1004B000F0E0FA93EA9380E00E946F0D2296EAEF53
:1004C000F0E0FA93EA9380E00E946F0D2296ECE050
:1004D000F1E0FA93EA93E0E0EA9331D366277727D5
:1004E0000E94E50EDF01CB01E9E2FCE563E171E486
:1004F0000E94450F0E947D0E84E00E946F0D26969B
:10050000EBE1F1E0FA93EA93E2E0EA9318D366278D
:1005100077270E94E50EDF01CB01E0E0F0E06CE41C
:1005200072E40E94450F0E947D0E84E00E946F0DD0
:100530002696E7E2F1E0FA93EA93E1E0EA93FFD24C
:10054000662777270E94E50EDF01CB01E0E0F0E0AF
:100550006CE472E40E94450F0E947D0E84E00E94CC
:100560006F0D2696E7E3F1E0FA93EA93E3E0EA936E
:10057000E6D2662777270E94E50EDF01CB01E0E097
:10058000F0E06CE472E40E94450F0E947D0E84E06E
:100590000E946F0D2696E4E4F1E0FA93EA93E4E01A
:1005A000EA93CDD2662777270E94E50EDF01CB01C3
:1005B000E0E0F0E06CE472E40E94450F0E947D0EE2
:1005C00084E00E946F0D2696E1E5F1E0FA93EA934C
:1005D000E5E0EA93B4D2662777270E94E50EDF01B3
:1005E000CB01E0E0F0E06CE472E40E94450F0E9471
:1005F0007D0E84E00E946F0D2696EDE5F1E0FA9302
:10060000EA93E6E0EA939BD2662777270E94E50EFD
:10061000DF01CB01E0E0F0E06CE472E40E94450F02
:100620000E947D0E84E00E946F0D2696E9E6F1E0BF
:10063000FA93EA93E7E0EA9382D2662777270E944B
:10064000E50EDF01CB01E0E0F0E06CE472E40E9433
:10065000450F0E947D0E84E00E946F0D2696E5E70F
:10066000F1E0FA93EA9380E00E946F0DFAC62A97B0
:100670000E94930FE0E4F2E46FE070E0E887F9870E
:100680006A877B87EC87FD876E877F8768D2E0303B
:1006900011F00C94CE03E6B7E170E9F3E6B7E16040
:1006A000E6BFE2E8E2BFE5E0EA9349D20E2F1F2F52
:1006B000E6E0EA9344D22E2F3F2FE02FF12FAC85B6
:1006C000BD858E859F85662777270E94B50DECEF47
:1006D000F1E060E070E00E94820E0E94BA0DEC87AB
:1006E000FD876E877F87E22FF32FA885B9858A85DE
:1006F0009B85662777270E94B50DEEEFF1E060E05D
:1007000070E00E94820E0E94BA0DE887F9876A871E
:100710007B87EC85FD856E857F85E855F34D6B40C5
:100720007040DF01CB01E1E7F2E060E070E00E94A1
:100730004C0E4E2F5F2FE885F9856A857B85E8553D
:10074000F34D6B407040DF01CB01E1E7F2E060E088
:1007500070E00E944C0EEE83FF83EEE8F1E0FA9326
:10076000EA93E02FF12F662777270E947D0EE22F74
:10077000F32F662777270E947D0EE42FF52F66273B
:1007800077270E947D0EEC89FD89662777270E94D6
:100790007D0E80E10E946F0D629678CF0E949A0FC5
:1007A000609608956097EEEFF9E260E070E0EC8704
:1007B000FD876E877F87E8E6FEE260E070E0E8870D
:1007C000F9876A877B87E0E0F0E061EE76E4E88312
:1007D000F9836A837B83A885B9858A859B85EC85A7
:1007E000FD856E857F850E94BA0D0E947D0E2FD7F4
:1007F000A8EEB3E080E090E00E94060EEC83FD835B
:100800006E837F83959A0E94DA0197989698ECED13
:10081000F5E0FA93EA930E94A50D979A969ACBD1A8
:10082000979A9DD1E83459F49798959AEBE9F1E0BD
:10083000FA93EA9380E00E946F0D22967DC1E13425
:1008400011F00C94FD049798E5EBF1E0FA93EA932C
:1008500080E00E946F0D2296ECE0F1E0FA93EA93BB
:10086000E0E0EA936CD1662777270E94E50EDF016E
:10087000CB01E9E2FCE563E171E40E94450F0E94CF
:100880007D0E84E00E946F0D2696EBE1F1E0FA9375
:10089000EA93E2E0EA9353D1662777270E94E50EB8
:1008A000DF01CB01E0E0F0E06CE472E40E94450F70
:1008B0000E947D0E84E00E946F0D2696E7E2F1E033
:1008C000FA93EA93E1E0EA933AD1662777270E9408
:1008D000E50EDF01CB01E0E0F0E06CE472E40E94A1
:1008E000450F0E947D0E84E00E946F0D2696E7E37F
:1008F000F1E0FA93EA93E3E0EA9321D166277727C0
:100900000E94E50EDF01CB01E0E0F0E06CE472E470
:100910000E94450F0E947D0E84E00E946F0D269676
:10092000E4E4F1E0FA93EA93E4E0EA9308D166277D
:1009300077270E94E50EDF01CB01E0E0F0E06CE4F8
:1009400072E40E94450F0E947D0E84E00E946F0DAC
:100950002696E1E5F1E0FA93EA93E5E0EA93EFD039
:10096000662777270E94E50EDF01CB01E0E0F0E08B
:100970006CE472E40E94450F0E947D0E84E00E94A8
:100980006F0D2696EDE5F1E0FA93EA93E6E0EA933F
:10099000D6D0662777270E94E50EDF01CB01E0E085
:1009A000F0E06CE472E40E94450F0E947D0E84E04A
:1009B0000E946F0D2696E9E6F1E0FA93EA93E7E0EC
:1009C000EA93BDD0662777270E94E50EDF01CB01B1
:1009D000E0E0F0E06CE472E40E94450F0E947D0EBE
:1009E00084E00E946F0D2696E5E7F1E0FA93EA9322
:1009F00080E00E946F0D22969FC0E73421F4979803
:100A00000E94370399C0EC3459F497989598EEEC0E
:100A1000F1E0FA93EA9380E00E946F0D22968CC079
:100A2000E23549F59798E8EEF1E0FA93EA9380E031
:100A30000E946F0D229693D00E2F003019F48FD0A4
:100A40000E2FFBCF0F3F09F400E0EDEFF1E0FA933A
:100A5000EA93E02FFF27662777270E947D0E0A93EF
:100A600002D5FF27662777270E947D0E88E00E9427
:100A70006F0D2A9661C0E335A1F59798EAE1F2E09F
:100A8000FA93EA9380E00E946F0D229668D00E2FB1
:100A9000003019F464D00E2FFBCF61D01E2F103020
:100AA00019F45DD01E2FFBCFE6E3F2E0FA93EA9350
:100AB000E12FFF27662777270E947D0EE02FFF2773
:100AC000662777270E947D0E0A931A931ED5FF276B
:100AD000662777270E947D0E8CE00E946F0D2E9670
:100AE0002BC0E43519F497986ED526C0E93421F56A
:100AF0009798EEE5F2E0FA93EA93EE81FF8168853C
:100B000079850E947D0E84E00E946F0D2696EC810F
:100B1000FD816E817F810E947D0EEC81FD816E8161
:100B20007F810E947D0EF5D3E8E7F2E0FA93EA9325
:100B300080E00E946F0D229673CE6096FFCFE88111
:100B4000E7B9369A349BFECF349AE4B1F5B105C0CB
:100B5000E881ECB95E9BFECF5E9A219608955F9B7B
:100B600002C0ECB10895E0E008950895AA93BA9305
:100B7000EA93EFB7EA931A930A930BB11CB1E02FF3
:100B8000EC7189F4A62DB0E0A050BB4F1C93639488
:100B9000E0E1E61509F466248394E0E1E81519F430
:100BA0008824689420F809911991E991EFBFE9919F
:100BB000B991A99118959498E2E3F0E0FA93EA9339
:100BC0000E94A50D949A0895E1B3E360E1BB919A68
:100BD000909A85E18A95F1F791988BE08A95F1F7E3
:100BE0000895909A8BE08A95F1F7919808958998E5
:100BF000919A80E28A95F1F7909A8BE08A95F1F7C5
:100C0000819908C08BE08A95F1F79098899A919A1A
:100C1000E1E00895899AE0E0089508950A9300E0DC
:100C20000830B0F4909885E18A95F1F7E981E07891
:100C300011F0919A01C09198E981EE0FE9838BE060
:100C40008A95F1F7909A85E18A95F1F70F5FE8CFE1
:100C500090980E94F705E13029F48BE08A95F1F72E
:100C6000E1E0AEC48BE08A95F1F7E1E2EA930E94FD
:100C7000A805E0E0A5C4A4C41A930A9310E08998DB
:100C8000919A00E0073088F4909A8BE08A95F1F70A
:100C9000110FE0B3E2701E2B8BE08A95F1F790986C
:100CA00085E18A95F1F70F5FEDCF819B02C0E1E00E
:100CB00001C0E0E01E2B899A9198909A85E18A956F
:100CC000F1F7909885E18A95F1F7E12F0991199153
:100CD00008950E94960F0B811C812D810E94E405CE
:100CE000EE81E160EA930E940E06E13079F4003073
:100CF00049F00E943C06A12FB22FEC931F5F2F4FAB
:100D00000150F5CF0E94F105E1E001C0E0E00E9452
:100D10009D0F279608950A930E94E40500E0E9815B
:100D20000E1790F4AA81BB81EC91EA930E940E0603
:100D3000E03031F0EA81FB813196EA83FB8302C027
:100D4000E0E005C00F5FEBCF0E94F105E1E0088114
:100D5000249608952397E0EDE883E1E0E983E0EC51
:100D6000EA83FE01FA93EA93E3E0EA930E948B069A
:100D70000EC02397E0EDE883E1E0E983E0E4EA8355
:100D8000FE01FA93EA93E3E0EA930E948B0623962E
:100D9000089568978AE0A6E0B0E0ECEDF0E00E94EC
:100DA000A10F0E94930FE7E8F2E0FA93EA93E8A11B
:100DB000F9A16AA17BA10E947D0E84E00E946F0DC3
:100DC0002696E0ECE98BAE8DBF8D88A199A1A03A63
:100DD000EBEBBE07EDE08E07E0E09E0740F0A035AC
:100DE000EAEDBE07E1E18E07E0E09E0708F024C0CF
:100DF000EEE0ED8B00E010E00330E0E01E07C8F409
:100E0000ACE8B0E0E02FF12FBF93AF930E94EB0D61
:100E1000AF91BF91EA0FFB1F34960E94770EAE8D03
:100E2000BF8D88A199A10E948E0F18F00F5F1F4FF0
:100E3000E3CF0B5F1F4F23C0ECE0ED8B00E010E031
:100E40000730E0E01E07C8F4A4EAB0E0E02FF12F7D
:100E5000BF93AF930E94EB0DAF91BF91EA0FFB1FC1
:100E600034960E94770EAE8DBF8D88A199A10E9405
:100E70008E0F18F00F5F1F4FE3CF0F5F1F4FA02F94
:100E8000B12FE5E00E94C80D0E2F1F2FE02FF12F8C
:100E9000AD89B0E0EA0FFB1FED8BAE8DBF8D88A151
:100EA00099A1E4EFF1E060E070E00E94260EEE8B85
:100EB000FF8B688F798FAE89BF89888D998DE0E22D
:100EC000F0E060E070E00E94260EEA8FFB8F6C8FEE
:100ED0007D8FEE89FF89688D798DEF71F07060707C
:100EE00070700E2F1F2FEA8DFB8D0E94F20DEF7F89
:100EF000F07060707070EA8BAA8DBB8D8C8D9D8DAB
:100F0000E5E00E94D10DEF7FF07060707070EB8BA8
:100F1000E02FF12FAB89B0E0EA0FFB1FEB8B00E075
:100F200010E0E989EC87EA89ED87EB89EE87ED89A6
:100F3000E88BE1EEEF87ED89E37FE88B0E94AA065C
:100F4000FE013C96FA93EA93E5E0EA930E948B0651
:100F5000EF85E460ED87FE013C96FA93EA93E2E0C8
:100F6000EA930E948B06EAE0F0E0FA93EA930E948B
:100F7000A50DEDEFEC8B2DE030E0E22FF32FF69591
:100F8000E795E470F0704E2F5F2FE22FF32FEE0FF6
:100F9000FF1FE870F070EA87FB87E22FF32F0E94B3
:100FA000ED0DE870F070E887F987E22FF32F0E94CB
:100FB000E90DE071F070EE83FF83FE017496FF93FC
:100FC000EF93E081E77EAF91BF91EC93FE017596C0
:100FD000FF93EF93E081E37FAF91BF91EC93FE012C
:100FE0007496FF93EF93E081EF93E885F985AE81E6
:100FF000BF81EA2BFB2BAF91B0E0EA2BFB2BAF912B
:10100000BF91EC93FE017596FF93EF93E081EF9310
:10101000E42FF52FAA85BB85EA2BFB2BAF91B0E01F
:10102000EA2BFB2BAF91BF91EC93EC89E460ED8749
:10103000ED89EE87FE013C96FA93EA93E3E0EA93AA
:101040000E948B060E94B906E1E0F0E0FA93EA9371
:101050000E94A50D0F5F1F4F82D2E03051F0E7E9EB
:10106000F2E0FA93EA9380E00E946F0D2296E1E0AD
:101070000EC00430E0E01E0708F453CFE0ECF2E0CD
:10108000FA93EA9380E00E946F0D2296E0E00E94BE
:101090009A0FA29608952A971A930A93E0EDEA838D
:1010A000FE0132960E2F1F2FE0E4EB83E4E6EC8383
:1010B000E4E0ED831A930A93EA930E948B06E2E040
:1010C000EB83E0E2EC831A930A93E3E0EA930E9455
:1010D0008B06EFE0EB83E4E5EC831A930A93E3E0FD
:1010E000EA930E948B06E1E1EB83EAE7EC831A9333
:1010F0000A93E3E0EA930E948B06E2E2EB83E0E0EE
:10110000EC83ED831A930A93E4E0EA930E948B0642
:10111000EBE1EB83EFE8EC83E0EFED831A930A93C6
:10112000E4E0EA930E948B06E5E1EB83E7EFEC83D2
:10113000E8E8ED83E8E5EE831A930A93E5E0EA93A5
:101140000E948B06E9E1EB83E6EAEC83E8E8ED83B5
:101150001A930A93E4E0EA930E948B06EBE2EB8396
:10116000EFEFEC83E7EFED831A930A93E4E0EA9361
:101170000E948B06E7E3EB83EFE2EC83E6E1ED838D
:10118000EDEBEE831A930A93E5E0EA930E948B0657
:10119000ECE3EB83E2E1EC831A930A93E3E0EA9356
:1011A0000E948B06E2E0EB83E0E2EC831A930A9361
:1011B000E3E0EA930E948B06E0E4EB83E3E6EC8352
:1011C000E4E0ED83E0E2EE831A930A93E5E0EA932C
:1011D0000E948B06E2EBEB83E0E1EC83E2E8ED8337
:1011E000E0E8EE83E2E8EF83E887E9871A930A9361
:1011F000E8E0EA930E948B06198108812C960895F5
:101200002C971A930A93FE0136960E2F1F2FE0EDAE
:10121000EE83E0E4EF83E3E6E887E4E0E9871A930E
:101220000A93EA930E948B06E2E0EF83E0E2E8870C
:101230001A930A93E3E0EA930E948B06AE85BF857A
:1012400088899989E0E0F0E060E879E40E94130F72
:10125000DF01CB01E0E0F0E563EC77E40E94450FAD
:10126000DE0112960E94B20E0E94720EE8E2EF8337
:10127000AA81BB818C819D81ECE00E94DD0DEF7F16
:10128000F07060707070E887E4E00E94DD0DEF7F21
:10129000F07060707070E987E4E00E94D10DEF7F1C
:1012A000F07060707070EA87E8EEF2E0FA93EA930B
:1012B000E889F9896A897B890E947D0EEE85FF277E
:1012C000662777270E947D0EEB89FF276627772701
:1012D0000E947D0EE88DFF27662777270E947D0EEE
:1012E00080E10E946F0D6296E0E0EB87EC871A9335
:1012F0000A93E7E0EA930E948B06E3E0F3E0FA93B7
:10130000EA9380E00E946F0D22961981088162960F
:1013100008950A930E94DB05E2E3F0E0FA93EA9372
:101320000E94A50DED81FE816F8178850E947D0E62
:101330000E94C9060E944B08E981FA816B817C8179
:101340000E947D0E0E94000900E0043098F40F5FB7
:1013500080E19EE00197F1F76ED0E03051F0E7E1D7
:10136000F3E0FA93EA9380E00E946F0D2296E1E0A9
:101370000AC0EBCFEFE1F3E0FA93EA9380E00E943A
:101380006F0D2296E0E008812996089523970E9428
:10139000950F21E030E0FE0134960E2F1F2FE0ED77
:1013A000EC83E4E2ED831A930A93E2E0EA930E946D
:1013B0008B06E030A1F0EC81EA931A930A93E2E005
:1013C000EA930E946906E03051F0E32FAF81B885BF
:1013D000F0E0EA0FFB1FAC81A08331E020E0203079
:1013E000D1F621E0FE0134960E2F1F2FE0EDEC83A5
:1013F000EEE1ED831A930A93E2E0EA930E948B06F2
:10140000E03099F0EC81EA931A930A93E2E0EA93D0
:101410000E946906E03049F0E32FAF81B885F0E023
:10142000EA0FFB1FAC81A08320E02030D9F60E9498
:101430009C0F299608952297FE01FA93EA930E9441
:10144000C609E881E078E03821F4E981E078E03805
:1014500009F003C09698E1E004C00E944B08969AF8
:10146000E0E02296089523971A930A93FE0132969C
:101470000E2F1F2FE0EDEA83ED81EB831A930A9381
:10148000E2E0EA930E948B06E03059F0EA81EA93A9
:101490001A930A93E1E0EA930E946906E03009F0AA
:1014A000EA81198108812696089522970E94950F56
:1014B000FE0134962E2F3F2FE0EDEC83E0E2ED832A
:1014C0003A932A93E2E0EA930E948B06E030C9F057
:1014D000EC81EA933A932A93E2E0EA930E94690648
:1014E000E03079F0AC81B0E0E0E0F1E00E94FE0D88
:1014F000DF01ED81F0E0EA0FFB1F0E2F1F2FE02F21
:10150000F12F0E949C0F2696089523971A930A9311
:10151000FE0132960E2F1F2FE0EDEA83EE81EB8362
:10152000ED81EC831A930A93E3E0EA930E948B0621
:101530001A930A93E2E0EA930E948B06E03059F096
:10154000EA81EA931A930A93E1E0EA930E9469061A
:10155000E03009F0EA8119810881279608952197E2
:1015600081E0A0E0B0E0E6EEF0E00E94A10F0A9377
:1015700000E00E94AA06E981EA93FE013296FA93FE
:10158000EA93E1E0EA930E9469060F5FE981E07463
:1015900021F00E94B906E1E013C0EBE2F3E0FA9318
:1015A000EA93EB81FF27662777270E947D0E84E070
:1015B0000E946F0D26960330F0F20E94B906E0E01B
:1015C0000881229608950E94930F0E94AF05E03093
:1015D000D1F5E6B7E170E9F3E6B7E160E6BFE2E82E
:1015E000E2BF0E94550A0E2F1F2FE5E0EA930E94EA
:1015F0009F052E2F3F2FE6E0EA930E949F054E2F76
:101600005F2FEFE3F3E0FA93EA93E22FF32F6627DD
:1016100077270E947D0EE42FF52F662777270E94FB
:101620007D0EE02FF12F662777270E947D0E0E9406
:101630001B0AFF27662777270E947D0E80E10E9404
:101640006F0D6296C2CF0E949A0F26960895E99177
:10165000F9916991799130976040704042F4E0953A
:10166000F0956095709500243196601D701D089569
:101670005D9BFECFE881ECB921960895A881B981E0
:101680000E94680E309749F00E94680E3196ED93E3
:10169000FC933197AA81A08304C0EA81EA930E9457
:1016A000380B239608951B7FE989EA93EB89FC891F
:1016B000FA93EA93E3DF403009F04A9508952C97B6
:1016C0000E94930F00E0EE89FF893196EE8BFF8B2D
:1016D0003197E4913E2FE03011F40C946B0DE02F24
:1016E000E03061F4353211F401E007C03A93EB8940
:1016F000FC89FA93EA930E943E0BECC1E130F1F4CD
:10170000353249F43A93EB89FC89FA93EA930E94C3
:101710003E0B00E0DFC102E0E0E0E98B10E03D328B
:1017200011F411E0D7C13B3219F4EBE2E98BD2C1DD
:10173000303219F4E0E2E98BCDC102C0E23039F475
:1017400040E003E0303311F41068C4C102C0E3305C
:10175000A1F4303310F03A3308F009C0A42FEAE0C6
:10176000EA9FE02D4E2FE32FE0534E0FB3C150E020
:101770003E3211F404E0AEC110C0E430A1F43033C5
:1017800010F03A3308F009C0A52FEAE0EA9FE02DF7
:101790005E2FE32FE0535E0F9DC13C3619F41260BB
:1017A00005E098C104C0E53011F00C946A0DE32FF8
:1017B000E33679F4AC89BD891497AC8BBD8B149654
:1017C000EC91EA93EB89FC89FA93EA930E943E0B31
:1017D00080C1E33781F4AC89BD891497AC8BBD8B94
:1017E00014960E94680EEE83FF83FA93EA930E9498
:1017F000900D0E2F12C0E037E1F4AC89BD8914972B
:10180000AC8BBD8B14960E94680EEE83FF83FA9317
:10181000EA930E949A0D0E2F18601F77503011F036
:10182000501708F001C0052F50E0E0E0E88B20E001
:101830008BC0E43611F0E93611F4146002C0E537CC
:10184000C1F4EAE0E88B11FF0AC0E0E0FAEC6AE9D3
:101850007BE3E887F9876A877B870AE029C0E0E1B4
:10186000F7E260E070E0E887F9876A877B8705E048
:101870001FC0E83511F4186004C0E83711F00C946B
:10188000690DE0E1E88B11FF0AC0E0E0F0E060E004
:1018900070E1E887F9876A877B8708E009C0E0E0A4
:1018A000F0E160E070E0E887F9876A877B8704E011
:1018B000503011F01F7701C051E011FF0DC0AC890D
:1018C000BD891497AC8BBD8B14960E946C0EEC876F
:1018D000FD876E877F871BC012FF0BC0AC89BD8957
:1018E0001497AC8BBD8B14960E94680E0E94F90D64
:1018F0000AC0AC89BD891497AC8BBD8B14960E942D
:10190000680E66277727EC87FD876E877F8712FF33
:101910001AC0AC85BD858E859F850E948A0F64F4B0
:10192000EC85FD856E857F850E94BF0DEC87FD8768
:101930006E877F87EDE2E98BE989E03019F00F5F70
:101940005F5F01C01B7F252F10FD19C0041710F425
:10195000241708F014C017FF08C012FF04C01B7F33
:101960003989015001C030E301C030E23A93EB897C
:10197000FC89FA93EA930E943E0B4150E7CF05178A
:10198000A0F4106112FF04C00E94530B015051508B
:10199000E0E3EA93EB89FC89FA93EA930E943E0B19
:1019A000403009F041505150EACF202FE889E03013
:1019B000F1F42030D9F013FF08C0EE81FF81319699
:1019C000EE83FF833197E49105C0AE81BF81ED9135
:1019D000AE83BF83EA93EB89FC89FA93EA930E9472
:1019E0003E0B403009F041502150E3CF64C0E88500
:1019F000F9856A857B85AC85BD858E859F850E942E
:101A0000260E3E2FE9E0E31730F413FF02C0395CE5
:101A100001C0395A01C0305D14FD22C0E0E3E31774
:101A200060F0A885B9858A859B85A130E0E0BE0776
:101A3000E0E08E07E0E09E0709F40DC0521710F0B9
:101A400030E309C0421710F010FF01C013C030E2AC
:101A500017FF06C030E3106112FF02C00E94530B53
:101A60003A93EB89FC89FA93EA930E943E0B40304B
:101A700009F041502150E885F9856A857B85AC8560
:101A8000BD858E859F850E94510EEC87FD876E87F0
:101A90007F87E889A885B9858A859B85FF27662782
:101AA00077270E94260EE887F9876A877B870E943E
:101AB000860F09F09CCF10FF0CC0403051F0415010
:101AC000E0E2EA93EB89FC89FA93EA930E943E0BE9
:101AD000F4CF00E0F8CD0E949A0F68960895FF9227
:101AE000F82E22971A930A93DE010E94B10D0A2F55
:101AF0001B2FE0E0EA83EB83DE0114960E94B10D18
:101B00000E94680EFA93EA931A930A93FE0136969E
:101B1000FA93EA93D4DD198108812496FF90089501
:101B2000A991B991EE27FF276D91662311F03196A7
:101B3000FBCF0895AA27BB27E991F99105900020D2
:101B400011F01196FBCFFD010895E991F9913096BE
:101B500039F080EA9FE00197F1F7A8953197C9F72E
:101B600008950024AF0DB01D0895AE0FBF1F861F4E
:101B7000971F0895EA1BFB0B680B790B0895E095FE
:101B8000F09560957095EF5FFF4F6F4F7F4F089511
:101B9000EE230E2EFD0121F0EE0FFF1F0A94E1F758
:101BA0000895EE230E2EFD01BC0131F0EE0FFF1F54
:101BB000661F771F0A94D1F70895EE230E2EFD01BC
:101BC000BC0131F075956795F795E7950A94D1F7C3
:101BD0000895EE0FFF1FEE0FFF1FEE0FFF1FEE0F1A
:101BE000FF1F0895F695E795F695E795F695E79525
:101BF00008956F2F660F660B762F0895FA9FF02DCC
:101C0000EB9FF00DEA9FE02DF10D08957A9F702D66
:101C10006B9F700DF89F700DE99F700D6A9F602D8E
:101C2000710DFB9F600D711DE89F600D711D882770
:101C3000FA9FF02D610D781FEB9FF00D611D781F4D
:101C4000EA9FE02DF10D681F781F08953F934F9391
:101C50005F93002411243327442750E2AA0FBB1FAF
:101C6000881F991F001C111C331F441F0E1A1F0AC6
:101C7000360B470B28F40E0E1F1E361F471F01C0E0
:101C8000A1605A9559F7FD01BC01D001832F942F13
:101C90005F914F913F91089508D0D8DF0EF46FDF28
:101CA0000895D4DFFD01BC010895E89477FF02C0D8
:101CB00066DF689497FF0BC00024A095B0958095CF
:101CC00090951196801D901D00F8039400FA0895D8
:101CD000ED91FC9111970895ED91FD916D917C919D
:101CE00013970895ED93FD936D937C93089505905C
:101CF000159065917491F00108957A936A93FA931F
:101D0000EA930895182E862F612D192E972F712D85
:101D10001B2EBF2FF12D1A2EAE2FE12D089550E866
:101D2000572711F45F9373C05F3F31F0660F000CCB
:101D300057956795752F08955F9300200AF06DC041
:101D400060C050E8192E1522880F991F9527550F4E
:101D5000879550E8072E0522660F771F7527550FC8
:101D6000679508955F93F5DF703818F07F3F08F4AA
:101D70004EC056E1571B92F45195583028F0EFEFC2
:101D8000FFEF6FEF7FE71AC077275523B9F0EE0F0B
:101D9000FF1F661F771F5A95D1F710C0772758305D
:101DA00028F0EF2FF62F672F5850F9CF552331F039
:101DB00076956795F795E7955A95D1F700200AF43F
:101DC000DEDE5F910895689401C0E894309760402A
:101DD0007040B1F0002426F0772312F40094CFDE97
:101DE000172E7EE1112032F07A95EE0FFF1F661F4D
:101DF000111CF9CFEF2FF62F612D5F9390DF5F91CC
:101E00000895EFEFFFEF6FE77FEF5F910895EE2703
:101E1000FF27662777275F910895EFEFFFEF6FE7C2
:101E20007FE75F9108955F938CDF703881F390387E
:101E300071F301240894791F23F44CF300200AF372
:101E4000ECCF3F934F93112433274427552798E134
:101E5000330F441F551FEE1FFF1F661F30F43A0F4C
:101E60004B1F581FE11DF11D611D9A9589F74F9178
:101E70003F9166232AF0550FEE1FFF1F661F02C019
:101E80007395E3F24CDF5F9108955F935ADF7038EA
:101E900019F4112012F6B5CF903809F4B8CF012407
:101EA0000894970B1BF4D4F30020F4CF792F669598
:101EB000F795E7958695B795A7954F9311244427F5
:101EC000552798E1AE17BF07860728F0AE1BBF0B5A
:101ED000860B089401C08894111C441F551FAA1F2B
:101EE000BB1F881F9A9571F7E12DF42F652FA695DA
:101EF000E91FF91F691F4F9166232AF0EE0FFF1F9C
:101F0000661F7A955BF20BDF5F9108953097604012
:101F1000704008951097804090400895AE17BF0715
:101F20008607970708955A934A933A932A931A93E8
:101F30000A9308955D814C813B812A811981088132
:101F40000895AC0FBD1F05900D928A95E1F7089595
:00000001FF
